:1000000046C2000063C2000061C200005FC200007F
:100010005DC200005BC2000059C2000057C2000070
:1000200055C2000053C2000051C200004FC2000080
:100030004DC200004BC2000049C2000047C2000090
:1000400045C2000043C2000041C200003FC20000A0
:100050003DC200003BC2000039C2000037C20000B0
:1000600035C2000033C2000031C200002FC20000C0
:100070002DC200002BC2000029C2000027C20000D0
:1000800025C2000023C2000021C200001FC20000E0
:100090001DC200001BC2000019C2000017C20000F0
:1000A00015C2000013C2000011C200000FC2000000
:1000B0000DC200000BC2000009C2000007C2000010
:1000C00005C2000003C2000001C20000FFC1000021
:1000D000FDC10000FBC10000F9C10000F7C1000034
:1000E000F5C10000F3C10000F1C10000EFC1000044
:1000F000EDC10000EBC10000E9C10000E7C1000054
:10010000E5C10000E3C10000E1C10000DFC1000063
:10011000DDC10000DBC10000D9C10000D7C1000073
:10012000D5C10000D3C10000D1C10000CFC1000083
:10013000CDC10000CBC10000C9C10000C7C1000093
:10014000C5C10000C3C10000C1C10000BFC10000A3
:10015000BDC10000BBC10000B9C10000B7C10000B3
:10016000B5C10000B3C10000B1C10000AFC10000C3
:10017000ADC10000ABC10000A9C10000A7C10000D3
:10018000A5C10000A3C10000A1C100009FC10000E3
:100190009DC100009BC1000099C1000097C10000F3
:1001A00095C1000093C1000091C100008FC1000003
:1001B0008DC100008BC1000089C1000087C1000013
:1001C00085C1000083C1000081C100007FC1000023
:1001D0007DC100007BC1000079C1000077C1000033
:1001E00075C1000073C1000071C100006FC1000043
:1001F0006DC100006BC1000069C10000000000007B
:10020000000000202020202000205050500000003E
:10021000005050F850F850502078A07028F020C0BE
:10022000C810204098186090A040A89068602040B6
:10023000000000001020404040201040201010100E
:100240002040005020F8205000002020F8202000FE
:1002500000000000602040000000F80000000000E6
:10026000000000606000081020408000708898A89E
:10027000C8887020602020202070708808102040DE
:10028000F8F810201008887010305090F81010F80E
:1002900080F008088870304080F0888870F8081076
:1002A00020404040708888708888707088887808FE
:1002B00010600060600060600000606000602040CE
:1002C000081020402010080000F800F800008040CE
:1002D0002010204080708808102000207088086856
:1002E000A8A87070888888F88888F08888F088883E
:1002F000F070888080808870E09088888890E0F82E
:100300008080F08080F8F88080E080808070888035
:1003100080988870888888F88888887020202020B5
:100320002070381010101090608890A0C0A09088A5
:10033000808080808080F888D8A88888888888888D
:10034000C8A898888870888888888870F08888F01D
:1003500080808070888888A89068F08888F0A09055
:1003600088788080700808F0F820202020202088DD
:1003700088888888887088888888885020888888B5
:10038000A8A8D8888888502050888888885020203D
:100390002020F80810204080F83820202020203825
:1003A00000804020100800E02020202020E0205085
:1003B0008800000000000000000000F8402010004D
:1003C000000000000070087888788080B0C88888B5
:1003D000F00000708080887008086898888878002D
:1003E000007088F88070304840E04040400000785D
:1003F000887808308080B0C88888882000602020F5
:1004000020701000301010906040404850605048FC
:10041000602020202020700000D0A8A8888800003C
:10042000B0C8888888000070888888700000F088CC
:10043000F08080000068987808080000B0C88080CC
:1004400080000070807008F04040E040404830007C
:100450000088888898680000888888502000008874
:1004600088A8A8500000885020508800008888780C
:1004700008700000F8102040F810202040202010C4
:100480002020202020202040202010202040112447
:100490001FBECFEFCDBFDFE5DEBF00E00CBF10E237
:1004A000A0E0B0E2E0E3F3E100E00BBF02C00790A0
:1004B0000D92AA33B107D9F722E2AAE3B0E201C054
:1004C0001D92AC33B207E1F704D730C799CDBF9284
:1004D000CF92DF92EF92FF920F931F93CF93DF9310
:1004E0001F92CDB7DEB7E0E0F6E088E08683858333
:1004F0000F2EFBE2BF2EF02DB98280EA99E051D495
:10050000C12CD12C760100E412E42FE030E043E06E
:10051000BE016F5F7F4F80EA99E072D400E616E07B
:10052000FF24F394F801F682B982BE016F5F7F4F1A
:1005300080EA99E07FD4F801F682E0EAF9E081816F
:1005400085FFFDCF80EA8093A009E0EAF9E0818190
:1005500086FFFDCFE0EAF9E080E481838081BE017F
:100560006F5F7F4F80EA99E07BD48BE28983BE0185
:100570006F5F7F4F80EA99E05DD481E080936606EB
:10058000E0EAF9E0818185FFFDCF86EA8093A0094A
:10059000E0EAF9E0818186FFFDCFE0EAF9E080E45E
:1005A00081838081BE016F5F7F4F80EA99E058D4DC
:1005B0008BE28983BE016F5F7F4F80EA99E03AD476
:1005C00081E080936606E0EAF9E0818185FFFDCF56
:1005D00088EC8093A009E0EAF9E0818186FFFDCFF5
:1005E000E0EAF9E080E481838081BE016F5F7F4FA4
:1005F00080EA99E035D48BE28983BE016F5F7F4F3B
:1006000080EA99E017D481E080936606E0EAF9E099
:10061000818185FFFDCF82EA8093A009E0EAF9E0BD
:10062000818186FFFDCFE0EAF9E080E4818380816B
:10063000BE016F5F7F4F80EA99E012D48BE289831D
:10064000BE016F5F7F4F80EA99E0F4D381E0809331
:100650006606E0EAF9E0818185FFFDCF8FE28093B5
:10066000A009E0EAF9E0818186FFFDCFE0EAF9E048
:1006700080E481838081BE016F5F7F4F80EA99E0D3
:10068000EFD38BE28983BE016F5F7F4F80EA99E0F1
:10069000D1D381E080936606E0EAF9E0818185FFAD
:1006A000FDCF88EF8093A009E0EAF9E0818186FF21
:1006B000FDCFE0EAF9E080E481838081BE016F5FD5
:1006C0007F4F80EA99E0CCD38BE28983BE016F5FD4
:1006D0007F4F80EA99E0AED381E080936606E0EA3E
:1006E000F9E0818185FFFDCF1092A009E0EAF9E0F1
:1006F000818186FFFDCFE0EAF9E080E4818380819B
:10070000BE016F5F7F4F80EA99E0AAD38BE28983B5
:10071000BE016F5F7F4F80EA99E08CD381E08093C8
:100720006606E0EAF9E0818185FFFDCF81E28093F2
:10073000A009E0EAF9E0818186FFFDCFE0EAF9E077
:1007400080E481838081BE016F5F7F4F80EA99E002
:1007500087D38BE28983BE016F5F7F4F80EA99E088
:1007600069D381E080936606E0EAF9E0818185FF44
:10077000FDCF81E88093A009E0EAF9E0818186FF5E
:10078000FDCFE0EAF9E080E481838081BE016F5F04
:100790007F4F80EA99E064D38BE28983BE016F5F6B
:1007A0007F4F80EA99E046D381E080936606E0EAD5
:1007B000F9E0818185FFFDCF81E28093A009E0EA25
:1007C000F9E0818186FFFDCFE0EAF9E080E48183F2
:1007D0008081BE016F5F7F4F80EA99E041D38BE259
:1007E0008983BE016F5F7F4F80EA99E023D381E068
:1007F00080936606E0EAF9E0818185FFFDCF8FEA0C
:100800008093A009E0EAF9E0818186FFFDCFE0EA6C
:10081000F9E080E481838081BE016F5F7F4F80EAD1
:1008200099E01ED30F90DF91CF911F910F91FF9010
:10083000EF90DF90CF90BF9008958FEF809370007E
:100840008093710080937200809373008093740092
:1008500080937500809376006CE081E490E065D32E
:100860009FB7F894E0E5F0E08081826080839FBFCD
:10087000818181FFFDCF61E080E490E056D39FB796
:10088000F894E0E5F0E080818E7F80839FBF08953B
:100890009FB7F894E82FF0E0E059FF4F6095808112
:1008A000682360839FBF0895FF920F931F93CF9398
:1008B000DF931F92CDB7DEB7082FF62E142F22D16B
:1008C0000F70006B8BE28983BE016F5F7F4F80EA00
:1008D00099E0B0D281E080936606E0EAF9E0918188
:1008E00095FFFDCF0093A009E0EAF9E0818186FF42
:1008F000FDCFE0EAF9E080E481838081BE016F5F93
:100900007F4F80EA99E0ACD20F2D0F7702950F70E0
:1009100000618BE28983BE016F5F7F4F80EA99E0BF
:1009200089D281E080936606E0EAF9E0818185FF63
:10093000FDCF0093A009E0EAF9E0818186FFFDCFB9
:10094000E0EAF9E080E481838081BE016F5F7F4F40
:1009500080EA99E085D20F2D0F708BE28983BE016A
:100960006F5F7F4F80EA99E065D281E080936606F1
:10097000E0EAF9E0818185FFFDCF0093A009E0EA7C
:10098000F9E0818186FFFDCFE0EAF9E080E4818330
:100990008081BE016F5F7F4F80EA99E061D28BE278
:1009A0008983BE016F5F7F4F80EA99E043D281E087
:1009B00080936506E0EAF9E0818185FFFDCF109321
:1009C000A009E0EAF9E0818186FFFDCFE0EAF9E0E5
:1009D00080E48183808181E080936606BE016F5F41
:1009E0007F4F80EA99E03CD20F90DF91CF911F9129
:1009F0000F91FF9008950F931F93CF93DF931F9252
:100A0000CDB7DEB78AE390E278D061DD8BE28983EF
:100A1000BE016F5F7F4F80EA99E00CD281E0809346
:100A20006606E0EAF9E0818185FFFDCF80E48093EE
:100A3000A009E0EAF9E0818186FFFDCFE0EAF9E074
:100A400080E481838081BE016F5F7F4F80EA99E0FF
:100A500007D200E00AC040E0612F802F25DF1F5F32
:100A60001038C9F70F5F043011F010E0F4CF0F9089
:100A7000DF91CF911F910F910895FF920F931F93D4
:100A8000CF93DF9388238CF1603278F5D42FC82F71
:100A9000F62EF694F694F6942F2D30E031952195AC
:100AA0003109220F331F220F331F220F331F260F4E
:100AB000311D61E070E08B0102C0000F111F2A950B
:100AC000E2F7682F8F2D2CD0D13021F028F0D230D2
:100AD00039F007C0802B05C0602F6095862301C0C8
:100AE0008027482F6C2F8F2DDFDEDF91CF911F9154
:100AF0000F91FF90089514C0089580933A22909327
:100B00003B22089520E8829FC0011124860F911D89
:100B1000E0913A22F0913B22E80FF91F40830895BB
:100B200020E8829FC0011124860F911DE0913A2296
:100B3000F0913B22E80FF91F80810895FF920F93F7
:100B40001F93CF93DF93E42FF0E0E80FF11DE1381E
:100B5000F1051CF0C0E84C2F481B442309F453C096
:100B6000D62FD695D695D695ED2FF0E0F195E19557
:100B7000F109EE0FFF1FEE0FFF1FEE0FFF1FDF014A
:100B8000A60FB11DBD01E1E0F0E0DF0102C0AA0F38
:100B9000BB1F6A95E2F7FA2E213021F098F022303F
:100BA00019F131C0C42F1FEF180F012F0C0F602F48
:100BB0008D2FA1DF482F4F29602F8D2F75DEC1505B
:100BC000A1F721C0C42F1FEF180FFA2EF094012FA8
:100BD0000C0F602F8D2F8FDF482F4F21602F8D2F0F
:100BE00063DEC150A1F70FC0C42F1FEF180F012FF4
:100BF0000C0F602F8D2F7FDF482F4F25602F8D2FFB
:100C000053DEC150A1F7DF91CF911F910F91FF905B
:100C10000895FF920F931F93CF93DF93222369F0E0
:100C2000C22FF42E182FDFEFD60F6D2F6C0F202F51
:100C30004F2D812F83DFC150C1F7DF91CF911F91DD
:100C40000F91FF900895AF92BF92CF92DF92EF92F3
:100C5000FF920F931F93CF93DF93C82FE62EB42EEE
:100C6000690100E0F901248143816B2D8E2DD1DFD4
:100C7000F6018081811139C08381282F2695269520
:100C80002695877009F02F5FF601A4802A9D9001B8
:100C900011248C2F90E04581841B9109289FA0018D
:100CA000299F500D389F500D112401811281040F8E
:100CB000151FF601F380FF20A1F0D0E0C0E08C2FDB
:100CC0008E0D9C2F977021F4F801D4910F5F1F4F68
:100CD000DD231CF441E06B2DD0DEDD0FCF5FCF11A3
:100CE000EECFB394AA94A110E4CFDF91CF911F91DE
:100CF0000F91FF90EF90DF90CF90BF90AF9008954D
:100D0000DF92EF92FF920F931F93CF93DF93042F05
:100D10007901EC01162FD62E89918A3031F4F70132
:100D200084818F5F080F1D2D09C08D3039F0970128
:100D3000402F612F88DFF7018381180F888181118F
:100D4000EBCFDF91CF911F910F91FF90EF90DF904C
:100D50000895CF93DF93FC01709620E030E0C62F1A
:100D6000D0E0DE01022E02C0B595A7950A94E2F705
:100D7000A0FD50832F5F3F4F31962830310589F712
:100D800040FF0AC041FF03C0FC01658302C0FC01B3
:100D90006683FC01618302C0FC016283DF91CF9115
:100DA0000895803A28E0920721F460E183E070CD55
:100DB0000895803B28E0920721F460E283E068CD4B
:100DC0000895803A29E0920721F460E184E060CD43
:100DD0000895803B29E0920721F460E284E058CD39
:100DE0000895803A2AE0920721F460E185E050CD31
:100DF0000895803A9B4019F460E186E049CD08955A
:100E00000F931F93CF93DF9300D000D0CDB7DEB701
:100E100009831A832B833C834D831E82BE016F5F3F
:100E20007F4FBAD02696CDBFDEBFDF91CF911F9105
:100E30000F910895FB018081E82FE695E695E695F0
:100E400040E2E49FF0011124FA5F877021E030E076
:100E5000A90102C0440F551F8A95E2F74683089501
:100E6000FB018081E82FE695E695E69540E2E49F58
:100E7000F0011124FA5F877021E030E0A90102C07F
:100E8000440F551F8A95E2F74583089543E050E0EB
:100E900061E080EE97E05DDF43E050E062E080EEED
:100EA00097E057DF43E050E060E180E696E051DFF5
:100EB00041E050E460E280E696E04BDF40E05BE139
:100EC00060E280E896E045DF40E05BE162E080EAD6
:100ED00096E03FDF40E05BE164E080EA96E039DFE6
:100EE00043E050E062E080E696E033DF43E050E02C
:100EF00068E080E696E02DDF43E050E068E080EABD
:100F000096E027DF43E050E061E080E696E021DFF5
:100F100043E050E068E080E096E01BDF41E050E015
:100F200060E180E896E015CF08951BBEFC0128ED36
:100F300024BF60830895CF92DF92EF92FF920F93C8
:100F40001F93CF93DF93EC01D901C801B695A79504
:100F500097958795481759076A077B0770F46A01C8
:100F60007B01CC0CDD1CEE1CFF1CC901B801A701E4
:100F70009601BAD12150310902C020E030E0832F20
:100F80008F708F832E83DF91CF911F910F91FF90F0
:100F9000EF90DF90CF900895EF92FF920F931F9301
:100FA000CF93DF93EC017B01009709F47BC1803C78
:100FB000910521F460E180E06BDC74C180389140E0
:100FC00021F462E080E064DC6DC1C11581E0D807E6
:100FD00021F461E080E05CDC65C1C038E3E0DE075D
:100FE00021F461E081E054DC5DC1C039F3E0DF074A
:100FF00021F461E082E04CDC55C1C11532E0D30739
:1010000021F462E081E044DC4DC1C03482E0D807C5
:1010100021F462E082E03CDC45C1C032E3E0DE075F
:1010200021F464E082E034DC3DC1C115F8E0DF0763
:1010300021F461E083E02CDC35C1C11539E0D30730
:1010400021F461E084E024DC2DC1C1158AE0D807D9
:1010500021F461E085E01CDC25C1C115EBE0DE0771
:1010600021F461E086E014DC1DC1C034F8E0DF0744
:1010700021F462E083E00CDC15C1C03439E0D30711
:1010800021F462E084E004DC0DC1C0348AE0D807BA
:1010900021F462E085E0FCDB05C1C039E8E0DE0751
:1010A00021F464E083E0F4DBFDC0C039F9E0DF0740
:1010B00021F464E084E0ECDBF5C0C0393AE0D3070A
:1010C00021F464E085E0E4DBEDC0C0398BE0D807B3
:1010D00021F464E086E0DCDBE5C0C03CE8E0DE074C
:1010E00021F468E083E0D4DBDDC0C03CF9E0DF0739
:1010F00021F468E084E0CCDBD5C0C03A38E0D30707
:1011000061F460E183E0C4DBE0EAF8E084818F7E93
:101110008483F7012481225043C0C03AF9E0DF07FD
:1011200021F460E184E0B4DBBDC0C03A3AE0D3070B
:1011300021F460E185E0ACDBB5C0C03A8BE0D807B4
:1011400021F460E186E0A4DBADC0C03BE8E0DE074F
:1011500021F460E283E09CDBA5C0C03BF9E0DF073F
:1011600021F460E284E094DB9DC0C03834E0D30712
:1011700021F460E483E08CDB95C0C03A84E0D807BA
:1011800021F460E485E084DB8DC08C818F7E8C83CC
:10119000FB0124812250CE01C03AF8E0DF0731F490
:1011A00080914E0684FD86C011E185C0803B38E009
:1011B000930779F0803AE9E09E0731F430916E06AA
:1011C00034FD7CC019E110C0803BF9E09F07A9F015
:1011D00001C015E1803A3AE0930731F480918E0620
:1011E00084FD6EC011E20CC0803A9B4049F48091AE
:1011F000AE0684FD04C019E203C01DE101C01DE27A
:10120000E12FE695E695E69530E2E39FF0011124A3
:10121000FA5F177081E090E0012E02C0880F991FDD
:101220000A94E2F78183223010F040E001C040E4EC
:10123000DF015096A10FB11D3FB7F8942C91277094
:101240002C939C91942B9C933FBF85838D81806CC4
:101250008D83F70184818D7F813021F48D818260BF
:101260008D8303C08D818D7F8D83F70185818823D8
:1012700021F08D8184608D8303C08D818B7F8D8370
:10128000F701408151816281738100E012E12AE718
:1012900030E0CE0150DE8C8188608C838C8180614F
:1012A0008C8310C08C818F7E8C83F7012481225027
:1012B000CE017CCF15E180EA98E086CF1DE194CF86
:1012C00015E29ECFDF91CF911F910F91FF90EF908C
:1012D0000895DCDDB2DA8FDB20E030E240E060E050
:1012E00087E090E20DDDFFCFA1E21A2EAA1BBB1B07
:1012F000FD010DC0AA1FBB1FEE1FFF1FA217B307E2
:10130000E407F50720F0A21BB30BE40BF50B661FF7
:10131000771F881F991F1A9469F7609570958095BB
:1013200090959B01AC01BD01CF010895F894FFCFCA
:1013300000FC010607207D4D79206E616D652069F6
:10134000730D0A584D4547412D4133425520587081
:101350006C61696E6564210D0A416E642049276DD8
:0A13600020626F6172642E2E2E00D1
:00000001FF
